{
  "abi": [
    {
      "inputs": [],
      "stateMutability": "nonpayable",
      "type": "constructor"
    },
    {
      "anonymous": false,
      "inputs": [
        {
          "indexed": true,
          "internalType": "address",
          "name": "escrow",
          "type": "address"
        },
        {
          "indexed": true,
          "internalType": "address",
          "name": "protocol",
          "type": "address"
        }
      ],
      "name": "EscrowAttached",
      "type": "event"
    },
    {
      "anonymous": false,
      "inputs": [
        {
          "indexed": true,
          "internalType": "address",
          "name": "escrow",
          "type": "address"
        },
        {
          "indexed": true,
          "internalType": "address",
          "name": "protocol",
          "type": "address"
        },
        {
          "indexed": false,
          "internalType": "address",
          "name": "token",
          "type": "address"
        },
        {
          "indexed": false,
          "internalType": "uint256",
          "name": "tokenThreshold",
          "type": "uint256"
        },
        {
          "indexed": false,
          "internalType": "uint256",
          "name": "timeLimit",
          "type": "uint256"
        },
        {
          "indexed": false,
          "internalType": "address[]",
          "name": "oracles",
          "type": "address[]"
        }
      ],
      "name": "EscrowCreated",
      "type": "event"
    },
    {
      "inputs": [
        {
          "internalType": "address",
          "name": "escrow",
          "type": "address"
        },
        {
          "internalType": "address",
          "name": "protocol",
          "type": "address"
        }
      ],
      "name": "attachEscrow",
      "outputs": [],
      "stateMutability": "nonpayable",
      "type": "function"
    },
    {
      "inputs": [
        {
          "internalType": "address",
          "name": "protocol",
          "type": "address"
        },
        {
          "internalType": "address",
          "name": "token",
          "type": "address"
        },
        {
          "internalType": "uint256",
          "name": "tokenThreshold",
          "type": "uint256"
        },
        {
          "internalType": "uint256",
          "name": "timeLimit",
          "type": "uint256"
        },
        {
          "internalType": "address[]",
          "name": "oracles",
          "type": "address[]"
        }
      ],
      "name": "createEscrow",
      "outputs": [
        {
          "internalType": "address",
          "name": "",
          "type": "address"
        }
      ],
      "stateMutability": "nonpayable",
      "type": "function"
    },
    {
      "inputs": [
        {
          "internalType": "address",
          "name": "",
          "type": "address"
        }
      ],
      "name": "getEscrowForProtocol",
      "outputs": [
        {
          "internalType": "contract CypherEscrow",
          "name": "",
          "type": "address"
        }
      ],
      "stateMutability": "view",
      "type": "function"
    }
  ],
  "bytecode": {
    "object": "0x608060405234801561001057600080fd5b50611a47806100206000396000f3fe608060405234801561001057600080fd5b50600436106100415760003560e01c806312ee2ff61461004657806349e8e23e1461005b5780636c5648e91461008a575b600080fd5b61005961005436600461036a565b6100b3565b005b61006e6100693660046103d2565b6101c8565b6040516001600160a01b03909116815260200160405180910390f35b61006e6100983660046104d2565b6000602081905290815260409020546001600160a01b031681565b80336001600160a01b0316816001600160a01b03166359b417f96040518163ffffffff1660e01b8152600401602060405180830381865afa1580156100fc573d6000803e3d6000fd5b505050506040513d601f19601f8201168201806040525081019061012091906104f6565b6001600160a01b0316146101605760405162461bcd60e51b81526020600482015260026024820152616f6b60f01b60448201526064015b60405180910390fd5b6001600160a01b03828116600081815260208190526040808220805473ffffffffffffffffffffffffffffffffffffffff19169488169485179055519192917f650cf4f3e29f38d0609709c59812dce6da75e976d5a27bb9ebd65112424b7e309190a3505050565b600085336001600160a01b0316816001600160a01b03166359b417f96040518163ffffffff1660e01b8152600401602060405180830381865afa158015610213573d6000803e3d6000fd5b505050506040513d601f19601f8201168201806040525081019061023791906104f6565b6001600160a01b0316146102725760405162461bcd60e51b81526020600482015260026024820152616f6b60f01b6044820152606401610157565b60008686868660405161028490610335565b6102919493929190610513565b604051809103906000f0801580156102ad573d6000803e3d6000fd5b506001600160a01b0389811660008181526020819052604090819020805473ffffffffffffffffffffffffffffffffffffffff1916938516938417905551929350917f247ae11a8fd0083f32e17556bd44b99f5d0f8c4e634e5df5f805bd6ca2c0b75690610322908b908b908b908b90610513565b60405180910390a3979650505050505050565b6114958061057d83390190565b6001600160a01b038116811461035757600080fd5b50565b803561036581610342565b919050565b6000806040838503121561037d57600080fd5b823561038881610342565b9150602083013561039881610342565b809150509250929050565b7f4e487b7100000000000000000000000000000000000000000000000000000000600052604160045260246000fd5b600080600080600060a086880312156103ea57600080fd5b85356103f581610342565b945060208681013561040681610342565b94506040870135935060608701359250608087013567ffffffffffffffff8082111561043157600080fd5b818901915089601f83011261044557600080fd5b813581811115610457576104576103a3565b8060051b604051601f19603f8301168101818110858211171561047c5761047c6103a3565b60405291825284820192508381018501918c83111561049a57600080fd5b938501935b828510156104bf576104b08561035a565b8452938501939285019261049f565b8096505050505050509295509295909350565b6000602082840312156104e457600080fd5b81356104ef81610342565b9392505050565b60006020828403121561050857600080fd5b81516104ef81610342565b6000608082016001600160a01b038088168452602087818601528660408601526080606086015282865180855260a087019150828801945060005b8181101561056c57855185168352948301949183019160010161054e565b50909a995050505050505050505056fe608060405260016000553480156200001657600080fd5b50604051620014953803806200149583398101604081905262000039916200010a565b600280546001600160a01b0319166001600160a01b0386161790556003839055600482905560005b8151811015620000cc57600180600084848151811062000085576200008562000205565b6020908102919091018101516001600160a01b03168252810191909152604001600020805460ff191691151591909117905580620000c3816200021b565b91505062000061565b505050505062000243565b80516001600160a01b0381168114620000ef57600080fd5b919050565b634e487b7160e01b600052604160045260246000fd5b600080600080608085870312156200012157600080fd5b6200012c85620000d7565b602086810151604088015160608901519397509095509350906001600160401b03808211156200015b57600080fd5b818801915088601f8301126200017057600080fd5b815181811115620001855762000185620000f4565b8060051b604051601f19603f83011681018181108582111715620001ad57620001ad620000f4565b60405291825284820192508381018501918b831115620001cc57600080fd5b938501935b82851015620001f557620001e585620000d7565b84529385019392850192620001d1565b989b979a50959850505050505050565b634e487b7160e01b600052603260045260246000fd5b6000600182016200023c57634e487b7160e01b600052601160045260246000fd5b5060010190565b61124280620002536000396000f3fe6080604052600436106100e85760003560e01c80637f6497831161008a578063e2889c8211610059578063e2889c821461032d578063f0d6da1a1461034d578063f36954e71461036d578063fc0c546a1461039a57600080fd5b80637f649783146102b7578063c08d1fe5146102d7578063de619cef146102ed578063df5dd1a51461030d57600080fd5b806349e6b62c116100c657806349e6b62c146101785780634aae13ca146101ff57806360026b2c1461028e57806366692ff0146102a157600080fd5b80633af32abf146100ed5780633e79d1e1146101325780634959fae314610156575b600080fd5b3480156100f957600080fd5b5061011d610108366004610ff9565b60066020526000908152604090205460ff1681565b60405190151581526020015b60405180910390f35b34801561013e57600080fd5b5061014860055481565b604051908152602001610129565b34801561016257600080fd5b5061017661017136600461101b565b6103d2565b005b34801561018457600080fd5b506101ca61019336600461101b565b60076020526000908152604090208054600182015460028301546003909301546001600160a01b0392831693918316929091169084565b60405161012994939291906001600160a01b039485168152928416602084015292166040820152606081019190915260800190565b34801561020b57600080fd5b5061026f61021a36600461101b565b600090815260076020908152604091829020825160808101845281546001600160a01b039081168252600183015481169382019390935260028201549092169282018390526003015460609091018190529091565b604080516001600160a01b039093168352602083019190915201610129565b61017661029c366004611034565b610657565b3480156102ad57600080fd5b5061014860035481565b3480156102c357600080fd5b506101766102d236600461107d565b61085f565b3480156102e357600080fd5b5061014860045481565b3480156102f957600080fd5b50610176610308366004611142565b610973565b34801561031957600080fd5b50610176610328366004610ff9565b610b96565b34801561033957600080fd5b5061017661034836600461101b565b610c25565b34801561035957600080fd5b5061017661036836600461101b565b610c92565b34801561037957600080fd5b50610148610388366004610ff9565b60086020526000908152604090205481565b3480156103a657600080fd5b506002546103ba906001600160a01b031681565b6040516001600160a01b039091168152602001610129565b3360009081526001602052604090205460ff168061040357604051631bc2178f60e01b815260040160405180910390fd5b6000546001146104475760405162461bcd60e51b815260206004820152600a6024820152695245454e5452414e435960b01b60448201526064015b60405180910390fd5b6002600081815583815260076020908152604091829020825160808101845281546001600160a01b03908116825260018301548116938201939093529381015490911691830182905260030154606083018190529061051e57600082602001516001600160a01b03168260405160006040518083038185875af1925050503d80600081146104f1576040519150601f19603f3d011682016040523d82523d6000602084013e6104f6565b606091505b5050905080610518576040516312171d8360e31b815260040160405180910390fd5b506105cc565b6040808301516020840151606085015192516323b872dd60e01b81523060048201526001600160a01b03918216602482015260448101939093526000929116906323b872dd906064016020604051808303816000875af1158015610586573d6000803e3d6000fd5b505050506040513d601f19601f820116820180604052508101906105aa919061118d565b9050806105ca576040516312171d8360e31b815260040160405180910390fd5b505b600084815260076020526040808220805473ffffffffffffffffffffffffffffffffffffffff19908116825560018201805482169055600282018054909116905560030191909155517ff250caa116f9eac0e4e82d403f131ce0a520b6c232dbcbe270b3729b0aaca09e906106449086815260200190565b60405180910390a1505060016000555050565b6000546001146106965760405162461bcd60e51b815260206004820152600a6024820152695245454e5452414e435960b01b604482015260640161043e565b60026000556001600160a01b03821615806106b857506001600160a01b038116155b156106d657604051636e5ec59f60e01b815260040160405180910390fd5b6001600160a01b0382811660009081526008602090815260408083205481516bffffffffffffffffffffffff19606089811b82168387015288901b166034820152604880820192909252825180820390920182526068810180845282519285019290922080865260079094529382902060e88501909252815485168152600182015485166088850152600282015490941660a884015260039081015460c89093019290925290543492908310806107aa57506001600160a01b03851660009081526006602052604090205460ff1615156001145b15610829576000846001600160a01b03168460405160006040518083038185875af1925050503d80600081146107fc576040519150601f19603f3d011682016040523d82523d6000602084013e610801565b606091505b5050905080610823576040516312171d8360e31b815260040160405180910390fd5b50610853565b6000828152600760205260409020546001600160a01b031661085357610853828686600087610ef5565b50506001600055505050565b3360009081526001602052604090205460ff168061089057604051631bc2178f60e01b815260040160405180910390fd5b60005b825181101561096e576001600660008584815181106108b4576108b46111af565b60200260200101516001600160a01b03166001600160a01b0316815260200190815260200160002060006101000a81548160ff021916908315150217905550336001600160a01b03167f94d300f0803cc0af9991569051574a3dafd674f3b8d03f81c5ac017d5293afa6848381518110610930576109306111af565b602002602001015160405161095491906001600160a01b0391909116815260200190565b60405180910390a280610966816111db565b915050610893565b505050565b6001600160a01b038416158061099057506001600160a01b038316155b156109ae57604051636e5ec59f60e01b815260040160405180910390fd5b6001600160a01b03841660009081526008602090815260408083205481516bffffffffffffffffffffffff1960608a811b82168387015289901b1660348201526048808201929092528251808203909201825260680190915280519101209050600354821080610a3b57506001600160a01b03851660009081526006602052604090205460ff1615156001145b15610ae5576040516323b872dd60e01b81526001600160a01b038681166004830152858116602483015260448201849052600091908516906323b872dd906064016020604051808303816000875af1158015610a9b573d6000803e3d6000fd5b505050506040513d601f19601f82011682018060405250810190610abf919061118d565b905080610adf576040516312171d8360e31b815260040160405180910390fd5b50610b8f565b6000818152600760205260409020546001600160a01b0316610b8f576040516323b872dd60e01b81526001600160a01b03868116600483015230602483015260448201849052600091908516906323b872dd906064016020604051808303816000875af1158015610b5a573d6000803e3d6000fd5b505050506040513d601f19601f82011682018060405250810190610b7e919061118d565b9050610b8d8287878787610ef5565b505b5050505050565b3360009081526001602052604090205460ff1680610bc757604051631bc2178f60e01b815260040160405180910390fd5b6001600160a01b038216600081815260016020818152604092839020805460ff1916909217909155905191825233917f828d2be040dede7698182e08dfa8bfbd663c879aee772509c4a2bd961d0ed43f910160405180910390a25050565b3360009081526001602052604090205460ff1680610c5657604051631bc2178f60e01b815260040160405180910390fd5b60048290556040518281527f7ca03a8cbe41ca13136299be424f67314c196adfdc1b37b8301089e6d5d227c99060200160405180910390a15050565b3360009081526001602052604090205460ff1680610cc357604051631bc2178f60e01b815260040160405180910390fd5b600054600114610d025760405162461bcd60e51b815260206004820152600a6024820152695245454e5452414e435960b01b604482015260640161043e565b6002600081815583815260076020908152604091829020825160808101845281546001600160a01b039081168252600183015481169382019390935293810154909116918301829052600301546060830152610dd557805160608201516040516000926001600160a01b031691908381818185875af1925050503d8060008114610da8576040519150601f19603f3d011682016040523d82523d6000602084013e610dad565b606091505b5050905080610dcf576040516312171d8360e31b815260040160405180910390fd5b50610e6b565b60408181015160208301518351606085015193516323b872dd60e01b81526001600160a01b0392831660048201529082166024820152604481019390935290916000918316906323b872dd906064016020604051808303816000875af1158015610e43573d6000803e3d6000fd5b505050506040513d601f19601f82011682018060405250810190610e67919061118d565b5050505b600083815260076020526040808220805473ffffffffffffffffffffffffffffffffffffffff19908116825560018201805482169055600282018054909116905560030191909155517f6aff8e45ac35602db4563b64aa6257e050e67a3d4f3c5157bb529d085f54c29090610ee39085815260200190565b60405180910390a15050600160005550565b6000858152600760209081526040808320805473ffffffffffffffffffffffffffffffffffffffff199081166001600160a01b038a811691821784556001808501805485168c8416908117909155600286018054909516928b169290921790935560039093018790558086526008909452918420805491947f0f360a1a6c71de8cfdad71a930b1ecb9d8fb30c356848fa97b2a66c164c12b9d938b93899389939091610fa29084906111f4565b9182905550604080519586526001600160a01b0390941660208601529284019190915250606082015260800160405180910390a35050505050565b80356001600160a01b0381168114610ff457600080fd5b919050565b60006020828403121561100b57600080fd5b61101482610fdd565b9392505050565b60006020828403121561102d57600080fd5b5035919050565b6000806040838503121561104757600080fd5b61105083610fdd565b915061105e60208401610fdd565b90509250929050565b634e487b7160e01b600052604160045260246000fd5b6000602080838503121561109057600080fd5b823567ffffffffffffffff808211156110a857600080fd5b818501915085601f8301126110bc57600080fd5b8135818111156110ce576110ce611067565b8060051b604051601f19603f830116810181811085821117156110f3576110f3611067565b60405291825284820192508381018501918883111561111157600080fd5b938501935b828510156111365761112785610fdd565b84529385019392850192611116565b98975050505050505050565b6000806000806080858703121561115857600080fd5b61116185610fdd565b935061116f60208601610fdd565b925061117d60408601610fdd565b9396929550929360600135925050565b60006020828403121561119f57600080fd5b8151801515811461101457600080fd5b634e487b7160e01b600052603260045260246000fd5b634e487b7160e01b600052601160045260246000fd5b6000600182016111ed576111ed6111c5565b5060010190565b60008219821115611207576112076111c5565b50019056fea2646970667358221220eb909e897ecc6397d74890b1e00e9d1318b33e9d5d31018fb214e07adb162d5764736f6c634300080f0033a2646970667358221220b62b2e5323efa4cfcdc02e36d24f644c6c9190a7aaa70e879a9c725a156dd95464736f6c634300080f0033",
    "linkReferences": {}
  },
  "methodIdentifiers": {
    "attachEscrow(address,address)": "12ee2ff6",
    "createEscrow(address,address,uint256,uint256,address[])": "49e8e23e",
    "getEscrowForProtocol(address)": "6c5648e9"
  },
  "id": 11
}