{
  "abi": [
    {
      "inputs": [],
      "stateMutability": "nonpayable",
      "type": "constructor"
    },
    {
      "anonymous": false,
      "inputs": [
        {
          "indexed": true,
          "internalType": "address",
          "name": "escrow",
          "type": "address"
        },
        {
          "indexed": true,
          "internalType": "address",
          "name": "protocol",
          "type": "address"
        },
        {
          "indexed": false,
          "internalType": "uint256",
          "name": "chainId",
          "type": "uint256"
        },
        {
          "indexed": false,
          "internalType": "address",
          "name": "token",
          "type": "address"
        },
        {
          "indexed": false,
          "internalType": "uint256",
          "name": "tokenThreshold",
          "type": "uint256"
        },
        {
          "indexed": false,
          "internalType": "uint256",
          "name": "timeLimit",
          "type": "uint256"
        },
        {
          "indexed": false,
          "internalType": "address[]",
          "name": "oracles",
          "type": "address[]"
        }
      ],
      "name": "EscrowCreated",
      "type": "event"
    },
    {
      "inputs": [
        {
          "internalType": "address",
          "name": "protocol",
          "type": "address"
        },
        {
          "internalType": "uint256",
          "name": "chainId",
          "type": "uint256"
        },
        {
          "internalType": "address",
          "name": "token",
          "type": "address"
        },
        {
          "internalType": "uint256",
          "name": "tokenThreshold",
          "type": "uint256"
        },
        {
          "internalType": "uint256",
          "name": "timeLimit",
          "type": "uint256"
        },
        {
          "internalType": "address[]",
          "name": "oracles",
          "type": "address[]"
        }
      ],
      "name": "createEscrow",
      "outputs": [
        {
          "internalType": "address",
          "name": "",
          "type": "address"
        }
      ],
      "stateMutability": "nonpayable",
      "type": "function"
    },
    {
      "inputs": [
        {
          "internalType": "address",
          "name": "",
          "type": "address"
        }
      ],
      "name": "getEscrowForProtocol",
      "outputs": [
        {
          "internalType": "contract CypherEscrow",
          "name": "",
          "type": "address"
        }
      ],
      "stateMutability": "view",
      "type": "function"
    }
  ],
  "bytecode": {
    "object": "0x608060405234801561001057600080fd5b50611c93806100206000396000f3fe608060405234801561001057600080fd5b50600436106100365760003560e01c80630c429cfd1461003b5780636c5648e91461006a575b600080fd5b61004e61004936600461024e565b610093565b6040516001600160a01b03909116815260200160405180910390f35b61004e610078366004610356565b6000602081905290815260409020546001600160a01b031681565b600086336001600160a01b0316816001600160a01b03166359b417f96040518163ffffffff1660e01b8152600401602060405180830381865afa1580156100de573d6000803e3d6000fd5b505050506040513d601f19601f82011682018060405250810190610102919061037a565b6001600160a01b03161461011557600080fd5b6000888888888888604051610129906101ea565b610138969594939291906103db565b604051809103906000f080158015610154573d6000803e3d6000fd5b506001600160a01b038a81166000818152602081905260409081902080547fffffffffffffffffffffffff000000000000000000000000000000000000000016938516938417905551929350917fb4cc975753a72b607becb1caf057bea08e04960408f17767b98d07598aa97fc1906101d6908c908c908c908c908c90610425565b60405180910390a398975050505050505050565b6117f98061046583390190565b6001600160a01b038116811461020c57600080fd5b50565b803561021a816101f7565b919050565b7f4e487b7100000000000000000000000000000000000000000000000000000000600052604160045260246000fd5b60008060008060008060c0878903121561026757600080fd5b8635610272816101f7565b95506020878101359550604088013561028a816101f7565b9450606088013593506080880135925060a088013567ffffffffffffffff808211156102b557600080fd5b818a0191508a601f8301126102c957600080fd5b8135818111156102db576102db61021f565b8060051b604051601f19603f830116810181811085821117156103005761030061021f565b60405291825284820192508381018501918d83111561031e57600080fd5b938501935b82851015610343576103348561020f565b84529385019392850192610323565b8096505050505050509295509295509295565b60006020828403121561036857600080fd5b8135610373816101f7565b9392505050565b60006020828403121561038c57600080fd5b8151610373816101f7565b600081518084526020808501945080840160005b838110156103d05781516001600160a01b0316875295820195908201906001016103ab565b509495945050505050565b60006001600160a01b03808916835287602084015280871660408401525084606083015283608083015260c060a083015261041960c0830184610397565b98975050505050505050565b8581526001600160a01b038516602082015283604082015282606082015260a06080820152600061045960a0830184610397565b97965050505050505056fe608060405260016000553480156200001657600080fd5b50604051620017f9380380620017f9833981016040819052620000399162000127565b600380546001600160a01b038087166001600160a01b031992831617909255600487905560058590556006849055600180549289169290911691909117905560005b8151811015620000e757600160026000848481518110620000a057620000a06200023e565b6020908102919091018101516001600160a01b03168252810191909152604001600020805460ff191691151591909117905580620000de8162000254565b9150506200007b565b505050505050506200027c565b80516001600160a01b03811681146200010c57600080fd5b919050565b634e487b7160e01b600052604160045260246000fd5b60008060008060008060c087890312156200014157600080fd5b6200014c87620000f4565b955060208088015195506200016460408901620000f4565b606089015160808a015160a08b015192975090955093506001600160401b03808211156200019157600080fd5b818a0191508a601f830112620001a657600080fd5b815181811115620001bb57620001bb62000111565b8060051b604051601f19603f83011681018181108582111715620001e357620001e362000111565b60405291825284820192508381018501918d8311156200020257600080fd5b938501935b828510156200022b576200021b85620000f4565b8452938501939285019262000207565b8096505050505050509295509295509295565b634e487b7160e01b600052603260045260246000fd5b6000600182016200027557634e487b7160e01b600052601160045260246000fd5b5060010190565b61156d806200028c6000396000f3fe6080604052600436106101445760003560e01c80637f649783116100c0578063df5dd1a511610074578063ed8ec19411610059578063ed8ec1941461037d578063f5dab711146103b6578063fc0c546a1461045457600080fd5b8063df5dd1a51461033d578063e2889c821461035d57600080fd5b8063a444ae41116100a5578063a444ae41146102cf578063c08d1fe514610307578063c62bba721461031d57600080fd5b80637f649783146102995780639a8a0592146102b957600080fd5b80634f00d410116101175780636653c564116100fc5780636653c5641461024357806366692ff01461026357806374313b4a1461027957600080fd5b80634f00d410146102105780636579e35c1461022357600080fd5b8063032c521c146101495780633af32abf1461016b5780633e79d1e1146101b05780634c3f6bbf146101d4575b600080fd5b34801561015557600080fd5b506101696101643660046112df565b610474565b005b34801561017757600080fd5b5061019b6101863660046112df565b60086020526000908152604090205460ff1681565b60405190151581526020015b60405180910390f35b3480156101bc57600080fd5b506101c660075481565b6040519081526020016101a7565b3480156101e057600080fd5b5061019b6101ef3660046112df565b6001600160a01b031660009081526009602052604090206004015460ff1690565b61016961021e366004611301565b61070c565b34801561022f57600080fd5b5061016961023e3660046112df565b6109cd565b34801561024f57600080fd5b5061016961025e36600461133d565b610a4f565b34801561026f57600080fd5b506101c660055481565b34801561028557600080fd5b50610169610294366004611392565b610cdc565b3480156102a557600080fd5b506101696102b43660046113db565b610f7a565b3480156102c557600080fd5b506101c660045481565b3480156102db57600080fd5b506001546102ef906001600160a01b031681565b6040516001600160a01b0390911681526020016101a7565b34801561031357600080fd5b506101c660065481565b34801561032957600080fd5b506101696103383660046112df565b61108e565b34801561034957600080fd5b506101696103583660046112df565b61110d565b34801561036957600080fd5b506101696103783660046114a0565b61119b565b34801561038957600080fd5b506101c66103983660046112df565b6001600160a01b031660009081526009602052604090206002015490565b3480156103c257600080fd5b506104186103d13660046112df565b600960205260009081526040902080546001820154600283015460038401546004909401546001600160a01b03938416949390921692909160ff8082169161010090041686565b604080516001600160a01b03978816815296909516602087015293850192909252606084015215156080830152151560a082015260c0016101a7565b34801561046057600080fd5b506003546102ef906001600160a01b031681565b3360009081526002602052604090205460ff16806104a557604051631bc2178f60e01b815260040160405180910390fd5b6000546001146104e95760405162461bcd60e51b815260206004820152600a6024820152695245454e5452414e435960b01b60448201526064015b60405180910390fd5b600260008181556001600160a01b03808516825260096020908152604092839020835160c0810185528154841681526001808301549094169281019290925293840154928101929092526003830154606083015260049092015460ff80821615156080840181905261010090920416151560a0830152909103610598576040517ffed7e45b00000000000000000000000000000000000000000000000000000000815260040160405180910390fd5b60208101516001600160a01b03166106285760015460408281015190516000926001600160a01b031691908381818185875af1925050503d80600081146105fb576040519150601f19603f3d011682016040523d82523d6000602084013e610600565b606091505b5050905080610622576040516312171d8360e31b815260040160405180910390fd5b506106b4565b602081015160408083015190516323b872dd60e01b81526001600160a01b0386811660048301528316602482018190526044820192909252600091906323b872dd906064016020604051808303816000875af115801561068c573d6000803e3d6000fd5b505050506040513d601f19601f820116820180604052508101906106b091906114b9565b5050505b60208082015160408084015181516001600160a01b03938416815293840152908516917f8b516777285db9737a59e8386b4211f51df379e01e92e5055ab5705f2d4e81be910160405180910390a25050600160005550565b60005460011461074b5760405162461bcd60e51b815260206004820152600a6024820152695245454e5452414e435960b01b60448201526064016104e0565b60026000556001546001600160a01b0316331461077b576040516363ad984f60e11b815260040160405180910390fd5b806004541461079d5760405163a179f8c960e01b815260040160405180910390fd5b6001600160a01b03808316600090815260096020908152604091829020825160c081018452815485168152600182015490941691840191909152600281015491830191909152600381015460608301526004015460ff8082161515608084015261010090910416151560a0820152600554349081108061083a57506001600160a01b03851660009081526008602052604090205460ff1615156001145b156108b9576000846001600160a01b03168260405160006040518083038185875af1925050503d806000811461088c576040519150601f19603f3d011682016040523d82523d6000602084013e610891565b606091505b50509050806108b3576040516312171d8360e31b815260040160405180910390fd5b506109c1565b60a082015115156000036108da576108d5338560008487611208565b6109c1565b608082015115156001146109015760405163c19f17a960e01b815260040160405180910390fd5b6000846001600160a01b03168260405160006040518083038185875af1925050503d806000811461094e576040519150601f19603f3d011682016040523d82523d6000602084013e610953565b606091505b5050905080610975576040516312171d8360e31b815260040160405180910390fd5b6040805160008152602081018490526001600160a01b0380881692908916917f1f0329311e787e579b4f8be7e451dc314a3abc5abbfeaf2fe38c9e6782e7c4a9910160405180910390a3505b50506001600055505050565b3360009081526002602052604090205460ff16806109fe57604051631bc2178f60e01b815260040160405180910390fd5b6001600160a01b038216600081815260096020526040808220600401805460ff191660011790555133917f74dabbb7a6b45ce0ea17efa3972cc134146e52b6be350e4464dbae10d1175f7191a35050565b6001546001600160a01b03163314610a7a576040516363ad984f60e11b815260040160405180910390fd5b8060045414610a9c5760405163a179f8c960e01b815260040160405180910390fd5b600554821080610ac957506001600160a01b03851660009081526008602052604090205460ff1615156001145b15610b75576001546040516323b872dd60e01b81526001600160a01b0391821660048201528582166024820152604481018490526000918516906323b872dd906064016020604051808303816000875af1158015610b2b573d6000803e3d6000fd5b505050506040513d601f19601f82011682018060405250810190610b4f91906114b9565b905080610b6f576040516312171d8360e31b815260040160405180910390fd5b50610cd5565b6001600160a01b038416600090815260096020526040812060040154610100900460ff1615159003610bb357610bae8585858585611208565b610cd5565b3360009081526009602052604090206004015460ff161515600114610beb5760405163c19f17a960e01b815260040160405180910390fd5b6040516323b872dd60e01b81526001600160a01b03848116600483018190529086166024830152604482018490526000916323b872dd906064016020604051808303816000875af1158015610c44573d6000803e3d6000fd5b505050506040513d601f19601f82011682018060405250810190610c6891906114b9565b905080610c88576040516312171d8360e31b815260040160405180910390fd5b604080516001600160a01b0386811682526020820186905280881692908916917f1f0329311e787e579b4f8be7e451dc314a3abc5abbfeaf2fe38c9e6782e7c4a9910160405180910390a3505b5050505050565b3360009081526002602052604090205460ff1680610d0d57604051631bc2178f60e01b815260040160405180910390fd5b600054600114610d4c5760405162461bcd60e51b815260206004820152600a6024820152695245454e5452414e435960b01b60448201526064016104e0565b600260008181556001600160a01b03808616825260096020908152604092839020835160c0810185528154841681526001808301549094169281019290925293840154928101929092526003830154606083015260049092015460ff80821615156080840181905261010090920416151560a0830152909114610de25760405163c19f17a960e01b815260040160405180910390fd5b604081018051908190610df582806114f1565b90525060208201516001600160a01b0316610e84576000856001600160a01b03168260405160006040518083038185875af1925050503d8060008114610e57576040519150601f19603f3d011682016040523d82523d6000602084013e610e5c565b606091505b5050905080610e7e576040516312171d8360e31b815260040160405180910390fd5b50610f23565b6040516323b872dd60e01b81526001600160a01b03858116600483018190529087166024830152604482018390526000916323b872dd906064016020604051808303816000875af1158015610edd573d6000803e3d6000fd5b505050506040513d601f19601f82011682018060405250810190610f0191906114b9565b905080610f21576040516312171d8360e31b815260040160405180910390fd5b505b8151604080516001600160a01b038781168252602082018590528089169316917f1f0329311e787e579b4f8be7e451dc314a3abc5abbfeaf2fe38c9e6782e7c4a9910160405180910390a350506001600055505050565b3360009081526002602052604090205460ff1680610fab57604051631bc2178f60e01b815260040160405180910390fd5b60005b825181101561108957600160086000858481518110610fcf57610fcf611508565b60200260200101516001600160a01b03166001600160a01b0316815260200190815260200160002060006101000a81548160ff021916908315150217905550336001600160a01b03167f94d300f0803cc0af9991569051574a3dafd674f3b8d03f81c5ac017d5293afa684838151811061104b5761104b611508565b602002602001015160405161106f91906001600160a01b0391909116815260200190565b60405180910390a2806110818161151e565b915050610fae565b505050565b3360009081526002602052604090205460ff16806110bf57604051631bc2178f60e01b815260040160405180910390fd5b6001600160a01b038216600081815260096020526040808220600401805460ff191690555133917f82861660fb3b17a3057af13e450908482c11df81d7ac14cb9cb3c7e21c77b1f391a35050565b3360009081526002602052604090205460ff168061113e57604051631bc2178f60e01b815260040160405180910390fd5b6001600160a01b038216600081815260026020908152604091829020805460ff19166001179055905191825233917f828d2be040dede7698182e08dfa8bfbd663c879aee772509c4a2bd961d0ed43f910160405180910390a25050565b3360009081526002602052604090205460ff16806111cc57604051631bc2178f60e01b815260040160405180910390fd5b60068290556040518281527f7ca03a8cbe41ca13136299be424f67314c196adfdc1b37b8301089e6d5d227c99060200160405180910390a15050565b6001600160a01b0384811660008181526009602090815260409182902080548a86167fffffffffffffffffffffffff000000000000000000000000000000000000000091821681178355600183018054978b1697909216871790915560038201879055600282018890556004909101805461ffff1916610100179055825194855290840186905291927fdf0a4b63ae66b0ac3328462e40dc6da1c2af0c32422f6de839863c50aa82daec910160405180910390a35050505050565b80356001600160a01b03811681146112da57600080fd5b919050565b6000602082840312156112f157600080fd5b6112fa826112c3565b9392505050565b60008060006060848603121561131657600080fd5b61131f846112c3565b925061132d602085016112c3565b9150604084013590509250925092565b600080600080600060a0868803121561135557600080fd5b61135e866112c3565b945061136c602087016112c3565b935061137a604087016112c3565b94979396509394606081013594506080013592915050565b600080604083850312156113a557600080fd5b6113ae836112c3565b91506113bc602084016112c3565b90509250929050565b634e487b7160e01b600052604160045260246000fd5b600060208083850312156113ee57600080fd5b823567ffffffffffffffff8082111561140657600080fd5b818501915085601f83011261141a57600080fd5b81358181111561142c5761142c6113c5565b8060051b604051601f19603f83011681018181108582111715611451576114516113c5565b60405291825284820192508381018501918883111561146f57600080fd5b938501935b8285101561149457611485856112c3565b84529385019392850192611474565b98975050505050505050565b6000602082840312156114b257600080fd5b5035919050565b6000602082840312156114cb57600080fd5b815180151581146112fa57600080fd5b634e487b7160e01b600052601160045260246000fd5b600082821015611503576115036114db565b500390565b634e487b7160e01b600052603260045260246000fd5b600060018201611530576115306114db565b506001019056fea26469706673582212208ee0770e6f0479f00e0c41ccb40ff853613e95399d8bd154bc266dc89dfa590264736f6c634300080f0033a2646970667358221220a18748a2c170e61400918e254b5ce36fbd1c4fff408df09d589983450d33f4d464736f6c634300080f0033",
    "linkReferences": {}
  },
  "methodIdentifiers": {
    "createEscrow(address,uint256,address,uint256,uint256,address[])": "0c429cfd",
    "getEscrowForProtocol(address)": "6c5648e9"
  },
  "id": 11
}