{
  "abi": [
    {
      "inputs": [
        {
          "internalType": "address",
          "name": "_token",
          "type": "address"
        },
        {
          "internalType": "uint256",
          "name": "_tokenThreshold",
          "type": "uint256"
        },
        {
          "internalType": "uint256",
          "name": "_timeLimit",
          "type": "uint256"
        },
        {
          "internalType": "address[]",
          "name": "_oracles",
          "type": "address[]"
        }
      ],
      "stateMutability": "nonpayable",
      "type": "constructor"
    },
    {
      "inputs": [],
      "name": "MustBeDisapproved",
      "type": "error"
    },
    {
      "inputs": [],
      "name": "NotApproved",
      "type": "error"
    },
    {
      "inputs": [],
      "name": "NotOracle",
      "type": "error"
    },
    {
      "inputs": [],
      "name": "NotValidAddress",
      "type": "error"
    },
    {
      "inputs": [],
      "name": "TransferFailed",
      "type": "error"
    },
    {
      "anonymous": false,
      "inputs": [
        {
          "indexed": true,
          "internalType": "address",
          "name": "user",
          "type": "address"
        },
        {
          "indexed": false,
          "internalType": "address",
          "name": "whitelist",
          "type": "address"
        }
      ],
      "name": "AddressAddedToWhitelist",
      "type": "event"
    },
    {
      "anonymous": false,
      "inputs": [
        {
          "indexed": false,
          "internalType": "bytes32",
          "name": "key",
          "type": "bytes32"
        },
        {
          "indexed": true,
          "internalType": "address",
          "name": "origin",
          "type": "address"
        },
        {
          "indexed": true,
          "internalType": "address",
          "name": "protocol",
          "type": "address"
        },
        {
          "indexed": true,
          "internalType": "address",
          "name": "dst",
          "type": "address"
        },
        {
          "indexed": false,
          "internalType": "address",
          "name": "tokenContract",
          "type": "address"
        },
        {
          "indexed": false,
          "internalType": "uint256",
          "name": "amount",
          "type": "uint256"
        },
        {
          "indexed": false,
          "internalType": "uint256",
          "name": "counter",
          "type": "uint256"
        }
      ],
      "name": "AmountStopped",
      "type": "event"
    },
    {
      "anonymous": false,
      "inputs": [
        {
          "indexed": true,
          "internalType": "address",
          "name": "user",
          "type": "address"
        },
        {
          "indexed": false,
          "internalType": "address",
          "name": "oracle",
          "type": "address"
        }
      ],
      "name": "OracleAdded",
      "type": "event"
    },
    {
      "anonymous": false,
      "inputs": [
        {
          "indexed": false,
          "internalType": "uint256",
          "name": "timeLimit",
          "type": "uint256"
        }
      ],
      "name": "TimeLimitSet",
      "type": "event"
    },
    {
      "anonymous": false,
      "inputs": [
        {
          "indexed": false,
          "internalType": "bytes32",
          "name": "key",
          "type": "bytes32"
        }
      ],
      "name": "TransactionAccepted",
      "type": "event"
    },
    {
      "anonymous": false,
      "inputs": [
        {
          "indexed": false,
          "internalType": "bytes32",
          "name": "key",
          "type": "bytes32"
        }
      ],
      "name": "TransactionDenied",
      "type": "event"
    },
    {
      "inputs": [
        {
          "internalType": "bytes32",
          "name": "key",
          "type": "bytes32"
        }
      ],
      "name": "acceptTransaction",
      "outputs": [],
      "stateMutability": "nonpayable",
      "type": "function"
    },
    {
      "inputs": [
        {
          "internalType": "address",
          "name": "_oracle",
          "type": "address"
        }
      ],
      "name": "addOracle",
      "outputs": [],
      "stateMutability": "nonpayable",
      "type": "function"
    },
    {
      "inputs": [
        {
          "internalType": "address[]",
          "name": "to",
          "type": "address[]"
        }
      ],
      "name": "addToWhitelist",
      "outputs": [],
      "stateMutability": "nonpayable",
      "type": "function"
    },
    {
      "inputs": [
        {
          "internalType": "bytes32",
          "name": "key",
          "type": "bytes32"
        },
        {
          "internalType": "address",
          "name": "to",
          "type": "address"
        }
      ],
      "name": "denyTransaction",
      "outputs": [],
      "stateMutability": "nonpayable",
      "type": "function"
    },
    {
      "inputs": [
        {
          "internalType": "address",
          "name": "origin",
          "type": "address"
        },
        {
          "internalType": "address",
          "name": "dst",
          "type": "address"
        }
      ],
      "name": "escrowETH",
      "outputs": [],
      "stateMutability": "payable",
      "type": "function"
    },
    {
      "inputs": [
        {
          "internalType": "address",
          "name": "origin",
          "type": "address"
        },
        {
          "internalType": "address",
          "name": "dst",
          "type": "address"
        },
        {
          "internalType": "address",
          "name": "asset",
          "type": "address"
        },
        {
          "internalType": "uint256",
          "name": "amount",
          "type": "uint256"
        }
      ],
      "name": "escrowTokens",
      "outputs": [],
      "stateMutability": "nonpayable",
      "type": "function"
    },
    {
      "inputs": [
        {
          "internalType": "address",
          "name": "",
          "type": "address"
        }
      ],
      "name": "getCounterForOrigin",
      "outputs": [
        {
          "internalType": "uint256",
          "name": "",
          "type": "uint256"
        }
      ],
      "stateMutability": "view",
      "type": "function"
    },
    {
      "inputs": [
        {
          "internalType": "bytes32",
          "name": "key",
          "type": "bytes32"
        }
      ],
      "name": "getTransaction",
      "outputs": [
        {
          "internalType": "address",
          "name": "",
          "type": "address"
        },
        {
          "internalType": "uint256",
          "name": "",
          "type": "uint256"
        }
      ],
      "stateMutability": "nonpayable",
      "type": "function"
    },
    {
      "inputs": [
        {
          "internalType": "bytes32",
          "name": "",
          "type": "bytes32"
        }
      ],
      "name": "getTransactionInfo",
      "outputs": [
        {
          "internalType": "address",
          "name": "origin",
          "type": "address"
        },
        {
          "internalType": "address",
          "name": "protocol",
          "type": "address"
        },
        {
          "internalType": "address",
          "name": "dst",
          "type": "address"
        },
        {
          "internalType": "address",
          "name": "asset",
          "type": "address"
        },
        {
          "internalType": "uint256",
          "name": "amount",
          "type": "uint256"
        }
      ],
      "stateMutability": "view",
      "type": "function"
    },
    {
      "inputs": [
        {
          "internalType": "address",
          "name": "",
          "type": "address"
        }
      ],
      "name": "isWhitelisted",
      "outputs": [
        {
          "internalType": "bool",
          "name": "",
          "type": "bool"
        }
      ],
      "stateMutability": "view",
      "type": "function"
    },
    {
      "inputs": [
        {
          "internalType": "uint256",
          "name": "_timeLimit",
          "type": "uint256"
        }
      ],
      "name": "setTimeLimit",
      "outputs": [],
      "stateMutability": "nonpayable",
      "type": "function"
    },
    {
      "inputs": [],
      "name": "timeLimit",
      "outputs": [
        {
          "internalType": "uint256",
          "name": "",
          "type": "uint256"
        }
      ],
      "stateMutability": "view",
      "type": "function"
    },
    {
      "inputs": [],
      "name": "timePeriod",
      "outputs": [
        {
          "internalType": "uint256",
          "name": "",
          "type": "uint256"
        }
      ],
      "stateMutability": "view",
      "type": "function"
    },
    {
      "inputs": [],
      "name": "token",
      "outputs": [
        {
          "internalType": "address",
          "name": "",
          "type": "address"
        }
      ],
      "stateMutability": "view",
      "type": "function"
    },
    {
      "inputs": [],
      "name": "tokenThreshold",
      "outputs": [
        {
          "internalType": "uint256",
          "name": "",
          "type": "uint256"
        }
      ],
      "stateMutability": "view",
      "type": "function"
    }
  ],
  "bytecode": {
    "object": "0x608060405260016000553480156200001657600080fd5b506040516200154c3803806200154c83398101604081905262000039916200010a565b600280546001600160a01b0319166001600160a01b0386161790556003839055600482905560005b8151811015620000cc57600180600084848151811062000085576200008562000205565b6020908102919091018101516001600160a01b03168252810191909152604001600020805460ff191691151591909117905580620000c3816200021b565b91505062000061565b505050505062000243565b80516001600160a01b0381168114620000ef57600080fd5b919050565b634e487b7160e01b600052604160045260246000fd5b600080600080608085870312156200012157600080fd5b6200012c85620000d7565b602086810151604088015160608901519397509095509350906001600160401b03808211156200015b57600080fd5b818801915088601f8301126200017057600080fd5b815181811115620001855762000185620000f4565b8060051b604051601f19603f83011681018181108582111715620001ad57620001ad620000f4565b60405291825284820192508381018501918b831115620001cc57600080fd5b938501935b82851015620001f557620001e585620000d7565b84529385019392850192620001d1565b989b979a50959850505050505050565b634e487b7160e01b600052603260045260246000fd5b6000600182016200023c57634e487b7160e01b600052601160045260246000fd5b5060010190565b6112f980620002536000396000f3fe6080604052600436106100e85760003560e01c80637f6497831161008a578063e2889c8211610059578063e2889c821461034c578063e583f4f71461036c578063f36954e71461038c578063fc0c546a146103b957600080fd5b80637f649783146102d6578063c08d1fe5146102f6578063de619cef1461030c578063df5dd1a51461032c57600080fd5b806349e6b62c116100c657806349e6b62c146101785780634aae13ca1461020e57806360026b2c146102ad57806366692ff0146102c057600080fd5b80633af32abf146100ed5780633e79d1e1146101325780634959fae314610156575b600080fd5b3480156100f957600080fd5b5061011d61010836600461108d565b60066020526000908152604090205460ff1681565b60405190151581526020015b60405180910390f35b34801561013e57600080fd5b5061014860055481565b604051908152602001610129565b34801561016257600080fd5b506101766101713660046110af565b6103f1565b005b34801561018457600080fd5b506101d36101933660046110af565b600760205260009081526040902080546001820154600283015460038401546004909401546001600160a01b039384169492841693918216929091169085565b604080516001600160a01b0396871681529486166020860152928516928401929092529092166060820152608081019190915260a001610129565b34801561021a57600080fd5b5061028e6102293660046110af565b600090815260076020908152604091829020825160a08101845281546001600160a01b03908116825260018301548116938201939093526002820154831693810193909352600381015490911660608301819052600490910154608090920182905291565b604080516001600160a01b039093168352602083019190915201610129565b6101766102bb3660046110c8565b6106bd565b3480156102cc57600080fd5b5061014860035481565b3480156102e257600080fd5b506101766102f1366004611111565b6108e3565b34801561030257600080fd5b5061014860045481565b34801561031857600080fd5b506101766103273660046111d6565b6109f7565b34801561033857600080fd5b5061017661034736600461108d565b610c1b565b34801561035857600080fd5b506101766103673660046110af565b610caa565b34801561037857600080fd5b50610176610387366004611221565b610d17565b34801561039857600080fd5b506101486103a736600461108d565b60086020526000908152604090205481565b3480156103c557600080fd5b506002546103d9906001600160a01b031681565b6040516001600160a01b039091168152602001610129565b3360009081526001602052604090205460ff168061042257604051631bc2178f60e01b815260040160405180910390fd5b6000546001146104665760405162461bcd60e51b815260206004820152600a6024820152695245454e5452414e435960b01b60448201526064015b60405180910390fd5b6002600081815583815260076020908152604091829020825160a08101845281546001600160a01b03908116808352600184015482169483019490945294820154851693810193909352600381015490931660608301526004909201546080820152906104e657604051636e5ec59f60e01b815260040160405180910390fd5b608081015160608201516001600160a01b031661057b57600082604001516001600160a01b03168260405160006040518083038185875af1925050503d806000811461054e576040519150601f19603f3d011682016040523d82523d6000602084013e610553565b606091505b5050905080610575576040516312171d8360e31b815260040160405180910390fd5b50610628565b6060820151604080840151608085015191516323b872dd60e01b81523060048201526001600160a01b039182166024820152604481019290925260009216906323b872dd906064016020604051808303816000875af11580156105e2573d6000803e3d6000fd5b505050506040513d601f19601f820116820180604052508101906106069190611244565b905080610626576040516312171d8360e31b815260040160405180910390fd5b505b600084815260076020526040808220805473ffffffffffffffffffffffffffffffffffffffff1990811682556001820180548216905560028201805482169055600382018054909116905560040191909155517ff250caa116f9eac0e4e82d403f131ce0a520b6c232dbcbe270b3729b0aaca09e906106aa9086815260200190565b60405180910390a1505060016000555050565b6000546001146106fc5760405162461bcd60e51b815260206004820152600a6024820152695245454e5452414e435960b01b604482015260640161045d565b60026000556001600160a01b038216158061071e57506001600160a01b038116155b1561073c57604051636e5ec59f60e01b815260040160405180910390fd5b6001600160a01b03821660009081526008602090815260408083205481516bffffffffffffffffffffffff19606088811b82168387015233811b8216603484015287901b166048820152605c8082019290925282518082039092018252607c019091528051910120349190600081815260076020908152604091829020825160a08101845281546001600160a01b039081168252600183015481169382019390935260028201548316938101939093526003808201549092166060840152600401546080830152549192509083108061082d57506001600160a01b03841660009081526006602052604090205460ff165b156108ac576000846001600160a01b03168460405160006040518083038185875af1925050503d806000811461087f576040519150601f19603f3d011682016040523d82523d6000602084013e610884565b606091505b50509050806108a6576040516312171d8360e31b815260040160405180910390fd5b506108d7565b6000828152600760205260409020546001600160a01b03166108d7576108d782863387600088610f74565b50506001600055505050565b3360009081526001602052604090205460ff168061091457604051631bc2178f60e01b815260040160405180910390fd5b60005b82518110156109f25760016006600085848151811061093857610938611266565b60200260200101516001600160a01b03166001600160a01b0316815260200190815260200160002060006101000a81548160ff021916908315150217905550336001600160a01b03167f94d300f0803cc0af9991569051574a3dafd674f3b8d03f81c5ac017d5293afa68483815181106109b4576109b4611266565b60200260200101516040516109d891906001600160a01b0391909116815260200190565b60405180910390a2806109ea81611292565b915050610917565b505050565b6001600160a01b0384161580610a1457506001600160a01b038316155b15610a3257604051636e5ec59f60e01b815260040160405180910390fd5b6001600160a01b03841660009081526008602090815260408083205481516bffffffffffffffffffffffff1960608a811b82168387015233811b8216603484015289901b166048820152605c8082019290925282518082039092018252607c0190915280519101209050600354821080610ac457506001600160a01b03851660009081526006602052604090205460ff165b15610b6c576040516323b872dd60e01b81523360048201526001600160a01b03858116602483015260448201849052600091908516906323b872dd906064016020604051808303816000875af1158015610b22573d6000803e3d6000fd5b505050506040513d601f19601f82011682018060405250810190610b469190611244565b905080610b66576040516312171d8360e31b815260040160405180910390fd5b50610c14565b6000818152600760205260409020546001600160a01b0316610c14576040516323b872dd60e01b8152336004820152306024820152604481018390526000906001600160a01b038516906323b872dd906064016020604051808303816000875af1158015610bde573d6000803e3d6000fd5b505050506040513d601f19601f82011682018060405250810190610c029190611244565b9050610c12828733888888610f74565b505b5050505050565b3360009081526001602052604090205460ff1680610c4c57604051631bc2178f60e01b815260040160405180910390fd5b6001600160a01b038216600081815260016020818152604092839020805460ff1916909217909155905191825233917f828d2be040dede7698182e08dfa8bfbd663c879aee772509c4a2bd961d0ed43f910160405180910390a25050565b3360009081526001602052604090205460ff1680610cdb57604051631bc2178f60e01b815260040160405180910390fd5b60048290556040518281527f7ca03a8cbe41ca13136299be424f67314c196adfdc1b37b8301089e6d5d227c99060200160405180910390a15050565b3360009081526001602052604090205460ff1680610d4857604051631bc2178f60e01b815260040160405180910390fd5b600054600114610d875760405162461bcd60e51b815260206004820152600a6024820152695245454e5452414e435960b01b604482015260640161045d565b6002600081815584815260076020908152604091829020825160a08101845281546001600160a01b039081168252600183015481169382019390935293810154821692840192909252600382015416606083018190526004909101546080830152610e675760808101516040516000916001600160a01b038616918381818185875af1925050503d8060008114610e3a576040519150601f19603f3d011682016040523d82523d6000602084013e610e3f565b606091505b5050905080610e61576040516312171d8360e31b815260040160405180910390fd5b50610ef2565b606081015160808201516040516323b872dd60e01b81523060048201526001600160a01b03868116602483015260448201929092526000918316906323b872dd906064016020604051808303816000875af1158015610eca573d6000803e3d6000fd5b505050506040513d601f19601f82011682018060405250810190610eee9190611244565b5050505b600084815260076020526040808220805473ffffffffffffffffffffffffffffffffffffffff1990811682556001820180548216905560028201805482169055600382018054909116905560040191909155517f6aff8e45ac35602db4563b64aa6257e050e67a3d4f3c5157bb529d085f54c290906106aa9086815260200190565b6000868152600760209081526040808320805473ffffffffffffffffffffffffffffffffffffffff199081166001600160a01b038b811691821784556001808501805485168d841690811790915560028601805486168d8516908117909155600387018054909616938c1693909317909455600490940188905581875260089095529285208054949591947fbd0f55833a4d034c96f05bf41106ea2b757b9ef0d297afab93e67d908f03c783938d938a938a939091906110359084906112ab565b9182905550604080519586526001600160a01b0390941660208601529284019190915250606082015260800160405180910390a4505050505050565b80356001600160a01b038116811461108857600080fd5b919050565b60006020828403121561109f57600080fd5b6110a882611071565b9392505050565b6000602082840312156110c157600080fd5b5035919050565b600080604083850312156110db57600080fd5b6110e483611071565b91506110f260208401611071565b90509250929050565b634e487b7160e01b600052604160045260246000fd5b6000602080838503121561112457600080fd5b823567ffffffffffffffff8082111561113c57600080fd5b818501915085601f83011261115057600080fd5b813581811115611162576111626110fb565b8060051b604051601f19603f83011681018181108582111715611187576111876110fb565b6040529182528482019250838101850191888311156111a557600080fd5b938501935b828510156111ca576111bb85611071565b845293850193928501926111aa565b98975050505050505050565b600080600080608085870312156111ec57600080fd5b6111f585611071565b935061120360208601611071565b925061121160408601611071565b9396929550929360600135925050565b6000806040838503121561123457600080fd5b823591506110f260208401611071565b60006020828403121561125657600080fd5b815180151581146110a857600080fd5b634e487b7160e01b600052603260045260246000fd5b634e487b7160e01b600052601160045260246000fd5b6000600182016112a4576112a461127c565b5060010190565b600082198211156112be576112be61127c565b50019056fea264697066735822122017f60d6c6e5d526eccb74cda4703f6a048acc40e1682842dfcbbeb61c6947f2a64736f6c634300080f0033",
    "linkReferences": {}
  },
  "methodIdentifiers": {
    "acceptTransaction(bytes32)": "4959fae3",
    "addOracle(address)": "df5dd1a5",
    "addToWhitelist(address[])": "7f649783",
    "denyTransaction(bytes32,address)": "e583f4f7",
    "escrowETH(address,address)": "60026b2c",
    "escrowTokens(address,address,address,uint256)": "de619cef",
    "getCounterForOrigin(address)": "f36954e7",
    "getTransaction(bytes32)": "4aae13ca",
    "getTransactionInfo(bytes32)": "49e6b62c",
    "isWhitelisted(address)": "3af32abf",
    "setTimeLimit(uint256)": "e2889c82",
    "timeLimit()": "c08d1fe5",
    "timePeriod()": "3e79d1e1",
    "token()": "fc0c546a",
    "tokenThreshold()": "66692ff0"
  },
  "id": 9
}