{
  "abi": [
    {
      "inputs": [],
      "stateMutability": "nonpayable",
      "type": "constructor"
    },
    {
      "anonymous": false,
      "inputs": [
        {
          "indexed": true,
          "internalType": "address",
          "name": "escrow",
          "type": "address"
        },
        {
          "indexed": true,
          "internalType": "address",
          "name": "protocol",
          "type": "address"
        }
      ],
      "name": "EscrowAttached",
      "type": "event"
    },
    {
      "anonymous": false,
      "inputs": [
        {
          "indexed": true,
          "internalType": "address",
          "name": "escrow",
          "type": "address"
        },
        {
          "indexed": true,
          "internalType": "address",
          "name": "protocol",
          "type": "address"
        },
        {
          "indexed": false,
          "internalType": "address",
          "name": "token",
          "type": "address"
        },
        {
          "indexed": false,
          "internalType": "uint256",
          "name": "tokenThreshold",
          "type": "uint256"
        },
        {
          "indexed": false,
          "internalType": "uint256",
          "name": "timeLimit",
          "type": "uint256"
        },
        {
          "indexed": false,
          "internalType": "address[]",
          "name": "oracles",
          "type": "address[]"
        }
      ],
      "name": "EscrowCreated",
      "type": "event"
    },
    {
      "inputs": [
        {
          "internalType": "address",
          "name": "escrow",
          "type": "address"
        },
        {
          "internalType": "address",
          "name": "protocol",
          "type": "address"
        }
      ],
      "name": "attachEscrow",
      "outputs": [],
      "stateMutability": "nonpayable",
      "type": "function"
    },
    {
      "inputs": [
        {
          "internalType": "address",
          "name": "protocol",
          "type": "address"
        },
        {
          "internalType": "address",
          "name": "token",
          "type": "address"
        },
        {
          "internalType": "uint256",
          "name": "tokenThreshold",
          "type": "uint256"
        },
        {
          "internalType": "uint256",
          "name": "timeLimit",
          "type": "uint256"
        },
        {
          "internalType": "address[]",
          "name": "oracles",
          "type": "address[]"
        }
      ],
      "name": "createEscrow",
      "outputs": [
        {
          "internalType": "address",
          "name": "",
          "type": "address"
        }
      ],
      "stateMutability": "nonpayable",
      "type": "function"
    },
    {
      "inputs": [
        {
          "internalType": "address",
          "name": "",
          "type": "address"
        }
      ],
      "name": "getEscrowForProtocol",
      "outputs": [
        {
          "internalType": "contract CypherEscrow",
          "name": "",
          "type": "address"
        }
      ],
      "stateMutability": "view",
      "type": "function"
    }
  ],
  "bytecode": {
    "object": "0x608060405234801561001057600080fd5b50611c75806100206000396000f3fe608060405234801561001057600080fd5b50600436106100415760003560e01c806312ee2ff61461004657806349e8e23e1461005b5780636c5648e91461008a575b600080fd5b61005961005436600461036a565b6100b3565b005b61006e6100693660046103d2565b6101c8565b6040516001600160a01b03909116815260200160405180910390f35b61006e6100983660046104d2565b6000602081905290815260409020546001600160a01b031681565b80336001600160a01b0316816001600160a01b03166359b417f96040518163ffffffff1660e01b8152600401602060405180830381865afa1580156100fc573d6000803e3d6000fd5b505050506040513d601f19601f8201168201806040525081019061012091906104f6565b6001600160a01b0316146101605760405162461bcd60e51b81526020600482015260026024820152616f6b60f01b60448201526064015b60405180910390fd5b6001600160a01b03828116600081815260208190526040808220805473ffffffffffffffffffffffffffffffffffffffff19169488169485179055519192917f650cf4f3e29f38d0609709c59812dce6da75e976d5a27bb9ebd65112424b7e309190a3505050565b600085336001600160a01b0316816001600160a01b03166359b417f96040518163ffffffff1660e01b8152600401602060405180830381865afa158015610213573d6000803e3d6000fd5b505050506040513d601f19601f8201168201806040525081019061023791906104f6565b6001600160a01b0316146102725760405162461bcd60e51b81526020600482015260026024820152616f6b60f01b6044820152606401610157565b60008686868660405161028490610335565b6102919493929190610513565b604051809103906000f0801580156102ad573d6000803e3d6000fd5b506001600160a01b0389811660008181526020819052604090819020805473ffffffffffffffffffffffffffffffffffffffff1916938516938417905551929350917f247ae11a8fd0083f32e17556bd44b99f5d0f8c4e634e5df5f805bd6ca2c0b75690610322908b908b908b908b90610513565b60405180910390a3979650505050505050565b6116c38061057d83390190565b6001600160a01b038116811461035757600080fd5b50565b803561036581610342565b919050565b6000806040838503121561037d57600080fd5b823561038881610342565b9150602083013561039881610342565b809150509250929050565b7f4e487b7100000000000000000000000000000000000000000000000000000000600052604160045260246000fd5b600080600080600060a086880312156103ea57600080fd5b85356103f581610342565b945060208681013561040681610342565b94506040870135935060608701359250608087013567ffffffffffffffff8082111561043157600080fd5b818901915089601f83011261044557600080fd5b813581811115610457576104576103a3565b8060051b604051601f19603f8301168101818110858211171561047c5761047c6103a3565b60405291825284820192508381018501918c83111561049a57600080fd5b938501935b828510156104bf576104b08561035a565b8452938501939285019261049f565b8096505050505050509295509295909350565b6000602082840312156104e457600080fd5b81356104ef81610342565b9392505050565b60006020828403121561050857600080fd5b81516104ef81610342565b6000608082016001600160a01b038088168452602087818601528660408601526080606086015282865180855260a087019150828801945060005b8181101561056c57855185168352948301949183019160010161054e565b50909a995050505050505050505056fe608060405260016000553480156200001657600080fd5b50604051620016c3380380620016c383398101604081905262000039916200010a565b600280546001600160a01b0319166001600160a01b0386161790556003839055600482905560005b8151811015620000cc57600180600084848151811062000085576200008562000205565b6020908102919091018101516001600160a01b03168252810191909152604001600020805460ff191691151591909117905580620000c3816200021b565b91505062000061565b505050505062000243565b80516001600160a01b0381168114620000ef57600080fd5b919050565b634e487b7160e01b600052604160045260246000fd5b600080600080608085870312156200012157600080fd5b6200012c85620000d7565b602086810151604088015160608901519397509095509350906001600160401b03808211156200015b57600080fd5b818801915088601f8301126200017057600080fd5b815181811115620001855762000185620000f4565b8060051b604051601f19603f83011681018181108582111715620001ad57620001ad620000f4565b60405291825284820192508381018501918b831115620001cc57600080fd5b938501935b82851015620001f557620001e585620000d7565b84529385019392850192620001d1565b989b979a50959850505050505050565b634e487b7160e01b600052603260045260246000fd5b6000600182016200023c57634e487b7160e01b600052601160045260246000fd5b5060010190565b61147080620002536000396000f3fe6080604052600436106100e85760003560e01c80637f6497831161008a578063e2889c8211610059578063e2889c821461034c578063e583f4f71461036c578063f36954e71461038c578063fc0c546a146103b957600080fd5b80637f649783146102d6578063c08d1fe5146102f6578063de619cef1461030c578063df5dd1a51461032c57600080fd5b806349e6b62c116100c657806349e6b62c146101785780634aae13ca1461020e57806360026b2c146102ad57806366692ff0146102c057600080fd5b80633af32abf146100ed5780633e79d1e1146101325780634959fae314610156575b600080fd5b3480156100f957600080fd5b5061011d610108366004611204565b60066020526000908152604090205460ff1681565b60405190151581526020015b60405180910390f35b34801561013e57600080fd5b5061014860055481565b604051908152602001610129565b34801561016257600080fd5b50610176610171366004611226565b6103f1565b005b34801561018457600080fd5b506101d3610193366004611226565b600760205260009081526040902080546001820154600283015460038401546004909401546001600160a01b039384169492841693918216929091169085565b604080516001600160a01b0396871681529486166020860152928516928401929092529092166060820152608081019190915260a001610129565b34801561021a57600080fd5b5061028e610229366004611226565b600090815260076020908152604091829020825160a08101845281546001600160a01b03908116825260018301548116938201939093526002820154831693810193909352600381015490911660608301819052600490910154608090920182905291565b604080516001600160a01b039093168352602083019190915201610129565b6101766102bb36600461123f565b61076d565b3480156102cc57600080fd5b5061014860035481565b3480156102e257600080fd5b506101766102f1366004611288565b610934565b34801561030257600080fd5b5061014860045481565b34801561031857600080fd5b5061017661032736600461134d565b610a48565b34801561033857600080fd5b50610176610347366004611204565b610c8a565b34801561035857600080fd5b50610176610367366004611226565b610d19565b34801561037857600080fd5b50610176610387366004611398565b610d86565b34801561039857600080fd5b506101486103a7366004611204565b60086020526000908152604090205481565b3480156103c557600080fd5b506002546103d9906001600160a01b031681565b6040516001600160a01b039091168152602001610129565b3360009081526001602052604090205460ff168061042257604051631bc2178f60e01b815260040160405180910390fd5b6000546001146104665760405162461bcd60e51b815260206004820152600a6024820152695245454e5452414e435960b01b60448201526064015b60405180910390fd5b60026000819055506000600760008481526020019081526020016000206040518060a00160405290816000820160009054906101000a90046001600160a01b03166001600160a01b03166001600160a01b031681526020016001820160009054906101000a90046001600160a01b03166001600160a01b03166001600160a01b031681526020016002820160009054906101000a90046001600160a01b03166001600160a01b03166001600160a01b031681526020016003820160009054906101000a90046001600160a01b03166001600160a01b03166001600160a01b03168152602001600482015481525050905060008160800151905060076000858152602001908152602001600020600080820160006101000a8154906001600160a01b0302191690556001820160006101000a8154906001600160a01b0302191690556002820160006101000a8154906001600160a01b0302191690556003820160006101000a8154906001600160a01b0302191690556004820160009055505060006001600160a01b031682606001516001600160a01b03160361068157600082604001516001600160a01b03168260405160006040518083038185875af1925050503d8060008114610654576040519150601f19603f3d011682016040523d82523d6000602084013e610659565b606091505b505090508061067b576040516312171d8360e31b815260040160405180910390fd5b5061072e565b6060820151604080840151608085015191516323b872dd60e01b81523060048201526001600160a01b039182166024820152604481019290925260009216906323b872dd906064016020604051808303816000875af11580156106e8573d6000803e3d6000fd5b505050506040513d601f19601f8201168201806040525081019061070c91906113bb565b90508061072c576040516312171d8360e31b815260040160405180910390fd5b505b6040518481527ff250caa116f9eac0e4e82d403f131ce0a520b6c232dbcbe270b3729b0aaca09e906020015b60405180910390a1505060016000555050565b6000546001146107ac5760405162461bcd60e51b815260206004820152600a6024820152695245454e5452414e435960b01b604482015260640161045d565b60026000556001600160a01b03821615806107ce57506001600160a01b038116155b156107ec57604051636e5ec59f60e01b815260040160405180910390fd5b6001600160a01b03821660009081526008602090815260408083205481516bffffffffffffffffffffffff19606088811b82168387015233811b8216603484015287901b166048820152605c8082019290925282518082039092018252607c01909152805191012034915060035482108061087f57506001600160a01b03831660009081526006602052604090205460ff165b156108fe576000836001600160a01b03168360405160006040518083038185875af1925050503d80600081146108d1576040519150601f19603f3d011682016040523d82523d6000602084013e6108d6565b606091505b50509050806108f8576040516312171d8360e31b815260040160405180910390fd5b50610929565b6000818152600760205260409020546001600160a01b031661092957610929818533866000876110e0565b505060016000555050565b3360009081526001602052604090205460ff168061096557604051631bc2178f60e01b815260040160405180910390fd5b60005b8251811015610a4357600160066000858481518110610989576109896113dd565b60200260200101516001600160a01b03166001600160a01b0316815260200190815260200160002060006101000a81548160ff021916908315150217905550336001600160a01b03167f94d300f0803cc0af9991569051574a3dafd674f3b8d03f81c5ac017d5293afa6848381518110610a0557610a056113dd565b6020026020010151604051610a2991906001600160a01b0391909116815260200190565b60405180910390a280610a3b81611409565b915050610968565b505050565b6001600160a01b0384161580610a6557506001600160a01b038316155b15610a8357604051636e5ec59f60e01b815260040160405180910390fd5b6001600160a01b03841660009081526008602090815260408083205481516bffffffffffffffffffffffff1960608a811b82168387015233811b8216603484015289901b166048820152605c8082019290925282518082039092018252607c0190915280519101209050600354821080610b1557506001600160a01b03851660009081526006602052604090205460ff165b15610bbd576040516323b872dd60e01b81523360048201526001600160a01b03858116602483015260448201849052600091908516906323b872dd906064016020604051808303816000875af1158015610b73573d6000803e3d6000fd5b505050506040513d601f19601f82011682018060405250810190610b9791906113bb565b905080610bb7576040516312171d8360e31b815260040160405180910390fd5b50610c83565b6000818152600760205260409020546001600160a01b0316610c83576040516323b872dd60e01b8152336004820152306024820152604481018390526000906001600160a01b038516906323b872dd906064016020604051808303816000875af1158015610c2f573d6000803e3d6000fd5b505050506040513d601f19601f82011682018060405250810190610c5391906113bb565b905080610c73576040516312171d8360e31b815260040160405180910390fd5b610c818287338888886110e0565b505b5050505050565b3360009081526001602052604090205460ff1680610cbb57604051631bc2178f60e01b815260040160405180910390fd5b6001600160a01b038216600081815260016020818152604092839020805460ff1916909217909155905191825233917f828d2be040dede7698182e08dfa8bfbd663c879aee772509c4a2bd961d0ed43f910160405180910390a25050565b3360009081526001602052604090205460ff1680610d4a57604051631bc2178f60e01b815260040160405180910390fd5b60048290556040518281527f7ca03a8cbe41ca13136299be424f67314c196adfdc1b37b8301089e6d5d227c99060200160405180910390a15050565b3360009081526001602052604090205460ff1680610db757604051631bc2178f60e01b815260040160405180910390fd5b600054600114610df65760405162461bcd60e51b815260206004820152600a6024820152695245454e5452414e435960b01b604482015260640161045d565b60026000819055506000600760008581526020019081526020016000206040518060a00160405290816000820160009054906101000a90046001600160a01b03166001600160a01b03166001600160a01b031681526020016001820160009054906101000a90046001600160a01b03166001600160a01b03166001600160a01b031681526020016002820160009054906101000a90046001600160a01b03166001600160a01b03166001600160a01b031681526020016003820160009054906101000a90046001600160a01b03166001600160a01b03166001600160a01b03168152602001600482015481525050905060076000858152602001908152602001600020600080820160006101000a8154906001600160a01b0302191690556001820160006101000a8154906001600160a01b0302191690556002820160006101000a8154906001600160a01b0302191690556003820160006101000a8154906001600160a01b0302191690556004820160009055505060006001600160a01b031681606001516001600160a01b0316036110055760808101516040516000916001600160a01b038616918381818185875af1925050503d8060008114610fd8576040519150601f19603f3d011682016040523d82523d6000602084013e610fdd565b606091505b5050905080610fff576040516312171d8360e31b815260040160405180910390fd5b506110b0565b606081015160808201516040516323b872dd60e01b81523060048201526001600160a01b038681166024830152604482019290925260009291909116906323b872dd906064016020604051808303816000875af115801561106a573d6000803e3d6000fd5b505050506040513d601f19601f8201168201806040525081019061108e91906113bb565b9050806110ae576040516312171d8360e31b815260040160405180910390fd5b505b6040518481527f6aff8e45ac35602db4563b64aa6257e050e67a3d4f3c5157bb529d085f54c2909060200161075a565b600086815260076020908152604080832080547fffffffffffffffffffffffff00000000000000000000000000000000000000009081166001600160a01b038b811691821784556001808501805485168d841690811790915560028601805486168d8516908117909155600387018054909616938c1693909317909455600490940188905581875260089095529285208054949591947fbd0f55833a4d034c96f05bf41106ea2b757b9ef0d297afab93e67d908f03c783938d938a938a939091906111ac908490611422565b9182905550604080519586526001600160a01b0390941660208601529284019190915250606082015260800160405180910390a4505050505050565b80356001600160a01b03811681146111ff57600080fd5b919050565b60006020828403121561121657600080fd5b61121f826111e8565b9392505050565b60006020828403121561123857600080fd5b5035919050565b6000806040838503121561125257600080fd5b61125b836111e8565b9150611269602084016111e8565b90509250929050565b634e487b7160e01b600052604160045260246000fd5b6000602080838503121561129b57600080fd5b823567ffffffffffffffff808211156112b357600080fd5b818501915085601f8301126112c757600080fd5b8135818111156112d9576112d9611272565b8060051b604051601f19603f830116810181811085821117156112fe576112fe611272565b60405291825284820192508381018501918883111561131c57600080fd5b938501935b8285101561134157611332856111e8565b84529385019392850192611321565b98975050505050505050565b6000806000806080858703121561136357600080fd5b61136c856111e8565b935061137a602086016111e8565b9250611388604086016111e8565b9396929550929360600135925050565b600080604083850312156113ab57600080fd5b82359150611269602084016111e8565b6000602082840312156113cd57600080fd5b8151801515811461121f57600080fd5b634e487b7160e01b600052603260045260246000fd5b634e487b7160e01b600052601160045260246000fd5b60006001820161141b5761141b6113f3565b5060010190565b60008219821115611435576114356113f3565b50019056fea26469706673582212209013575036d3b90a521d4bbad93e351ba00a2e91f178aa437b93a2c91eb36c9d64736f6c634300080f0033a2646970667358221220dcbea04288fa3d166fa393e87bb70dd1bc728328af631a5ce14eecf93624c30164736f6c634300080f0033",
    "linkReferences": {}
  },
  "methodIdentifiers": {
    "attachEscrow(address,address)": "12ee2ff6",
    "createEscrow(address,address,uint256,uint256,address[])": "49e8e23e",
    "getEscrowForProtocol(address)": "6c5648e9"
  },
  "id": 10
}